{
  "_format": "hh-sol-artifact-1",
  "contractName": "NUSD",
  "sourceName": "contracts/NUSD.sol",
  "abi": [
    {
      "inputs": [],
      "stateMutability": "nonpayable",
      "type": "constructor"
    },
    {
      "anonymous": false,
      "inputs": [
        {
          "indexed": true,
          "internalType": "address",
          "name": "owner",
          "type": "address"
        },
        {
          "indexed": true,
          "internalType": "address",
          "name": "spender",
          "type": "address"
        },
        {
          "indexed": false,
          "internalType": "uint256",
          "name": "value",
          "type": "uint256"
        }
      ],
      "name": "Approval",
      "type": "event"
    },
    {
      "inputs": [
        {
          "internalType": "address",
          "name": "spender",
          "type": "address"
        },
        {
          "internalType": "uint256",
          "name": "amount",
          "type": "uint256"
        }
      ],
      "name": "approve",
      "outputs": [
        {
          "internalType": "bool",
          "name": "",
          "type": "bool"
        }
      ],
      "stateMutability": "nonpayable",
      "type": "function"
    },
    {
      "inputs": [],
      "name": "deposit",
      "outputs": [],
      "stateMutability": "payable",
      "type": "function"
    },
    {
      "inputs": [
        {
          "internalType": "address payable",
          "name": "account",
          "type": "address"
        }
      ],
      "name": "emergencyWithdraw",
      "outputs": [],
      "stateMutability": "payable",
      "type": "function"
    },
    {
      "anonymous": false,
      "inputs": [
        {
          "indexed": true,
          "internalType": "address",
          "name": "previousOwner",
          "type": "address"
        },
        {
          "indexed": true,
          "internalType": "address",
          "name": "newOwner",
          "type": "address"
        }
      ],
      "name": "OwnershipTransferred",
      "type": "event"
    },
    {
      "inputs": [
        {
          "internalType": "uint256",
          "name": "amount",
          "type": "uint256"
        }
      ],
      "name": "redeem",
      "outputs": [],
      "stateMutability": "nonpayable",
      "type": "function"
    },
    {
      "inputs": [],
      "name": "redeemAll",
      "outputs": [],
      "stateMutability": "nonpayable",
      "type": "function"
    },
    {
      "inputs": [],
      "name": "renounceOwnership",
      "outputs": [],
      "stateMutability": "nonpayable",
      "type": "function"
    },
    {
      "inputs": [
        {
          "internalType": "address",
          "name": "recipient",
          "type": "address"
        },
        {
          "internalType": "uint256",
          "name": "amount",
          "type": "uint256"
        }
      ],
      "name": "transfer",
      "outputs": [
        {
          "internalType": "bool",
          "name": "",
          "type": "bool"
        }
      ],
      "stateMutability": "nonpayable",
      "type": "function"
    },
    {
      "anonymous": false,
      "inputs": [
        {
          "indexed": true,
          "internalType": "address",
          "name": "from",
          "type": "address"
        },
        {
          "indexed": true,
          "internalType": "address",
          "name": "to",
          "type": "address"
        },
        {
          "indexed": false,
          "internalType": "uint256",
          "name": "value",
          "type": "uint256"
        }
      ],
      "name": "Transfer",
      "type": "event"
    },
    {
      "inputs": [
        {
          "internalType": "address",
          "name": "sender",
          "type": "address"
        },
        {
          "internalType": "address",
          "name": "recipient",
          "type": "address"
        },
        {
          "internalType": "uint256",
          "name": "amount",
          "type": "uint256"
        }
      ],
      "name": "transferFrom",
      "outputs": [
        {
          "internalType": "bool",
          "name": "",
          "type": "bool"
        }
      ],
      "stateMutability": "nonpayable",
      "type": "function"
    },
    {
      "inputs": [
        {
          "internalType": "address",
          "name": "newOwner",
          "type": "address"
        }
      ],
      "name": "transferOwnership",
      "outputs": [],
      "stateMutability": "nonpayable",
      "type": "function"
    },
    {
      "inputs": [
        {
          "internalType": "address",
          "name": "",
          "type": "address"
        },
        {
          "internalType": "address",
          "name": "",
          "type": "address"
        }
      ],
      "name": "allowance",
      "outputs": [
        {
          "internalType": "uint256",
          "name": "",
          "type": "uint256"
        }
      ],
      "stateMutability": "view",
      "type": "function"
    },
    {
      "inputs": [
        {
          "internalType": "address",
          "name": "",
          "type": "address"
        }
      ],
      "name": "balanceOf",
      "outputs": [
        {
          "internalType": "uint256",
          "name": "",
          "type": "uint256"
        }
      ],
      "stateMutability": "view",
      "type": "function"
    },
    {
      "inputs": [],
      "name": "decimals",
      "outputs": [
        {
          "internalType": "uint8",
          "name": "",
          "type": "uint8"
        }
      ],
      "stateMutability": "view",
      "type": "function"
    },
    {
      "inputs": [],
      "name": "getLatestData",
      "outputs": [
        {
          "internalType": "int256",
          "name": "",
          "type": "int256"
        }
      ],
      "stateMutability": "view",
      "type": "function"
    },
    {
      "inputs": [],
      "name": "name",
      "outputs": [
        {
          "internalType": "string",
          "name": "",
          "type": "string"
        }
      ],
      "stateMutability": "view",
      "type": "function"
    },
    {
      "inputs": [],
      "name": "owner",
      "outputs": [
        {
          "internalType": "address",
          "name": "",
          "type": "address"
        }
      ],
      "stateMutability": "view",
      "type": "function"
    },
    {
      "inputs": [],
      "name": "supply",
      "outputs": [
        {
          "internalType": "uint256",
          "name": "",
          "type": "uint256"
        }
      ],
      "stateMutability": "view",
      "type": "function"
    },
    {
      "inputs": [],
      "name": "symbol",
      "outputs": [
        {
          "internalType": "string",
          "name": "",
          "type": "string"
        }
      ],
      "stateMutability": "view",
      "type": "function"
    },
    {
      "inputs": [],
      "name": "totalSupply",
      "outputs": [
        {
          "internalType": "uint256",
          "name": "",
          "type": "uint256"
        }
      ],
      "stateMutability": "view",
      "type": "function"
    }
  ],
  "bytecode": "0x60806040526040518060400160405280600481526020017f6e55534400000000000000000000000000000000000000000000000000000000815250600390816200004a919062000391565b506040518060400160405280600481526020017f6e555344000000000000000000000000000000000000000000000000000000008152506004908162000091919062000391565b506012600560006101000a81548160ff021916908360ff160217905550348015620000bb57600080fd5b50735f4ec3df9cbd43714fe2740f5e3616155c5b8419600560016101000a81548173ffffffffffffffffffffffffffffffffffffffff021916908373ffffffffffffffffffffffffffffffffffffffff16021790555062000478565b600081519050919050565b7f4e487b7100000000000000000000000000000000000000000000000000000000600052604160045260246000fd5b7f4e487b7100000000000000000000000000000000000000000000000000000000600052602260045260246000fd5b600060028204905060018216806200019957607f821691505b602082108103620001af57620001ae62000151565b5b50919050565b60008190508160005260206000209050919050565b60006020601f8301049050919050565b600082821b905092915050565b600060088302620002197fffffffffffffffffffffffffffffffffffffffffffffffffffffffffffffffff82620001da565b620002258683620001da565b95508019841693508086168417925050509392505050565b6000819050919050565b6000819050919050565b6000620002726200026c62000266846200023d565b62000247565b6200023d565b9050919050565b6000819050919050565b6200028e8362000251565b620002a66200029d8262000279565b848454620001e7565b825550505050565b600090565b620002bd620002ae565b620002ca81848462000283565b505050565b5b81811015620002f257620002e6600082620002b3565b600181019050620002d0565b5050565b601f82111562000341576200030b81620001b5565b6200031684620001ca565b8101602085101562000326578190505b6200033e6200033585620001ca565b830182620002cf565b50505b505050565b600082821c905092915050565b6000620003666000198460080262000346565b1980831691505092915050565b600062000381838362000353565b9150826002028217905092915050565b6200039c8262000117565b67ffffffffffffffff811115620003b857620003b762000122565b5b620003c4825462000180565b620003d1828285620002f6565b600060209050601f831160018114620004095760008415620003f4578287015190505b62000400858262000373565b86555062000470565b601f1984166200041986620001b5565b60005b8281101562000443578489015182556001820191506020850194506020810190506200041c565b868310156200046357848901516200045f601f89168262000353565b8355505b6001600288020188555050505b505050505050565b61176780620004886000396000f3fe6080604052600436106100e85760003560e01c806370a082311161008a578063d0e30db011610059578063d0e30db0146102fa578063db006a7514610304578063dd62ed3e1461032d578063f8b2cb4f1461036a576100e8565b806370a082311461022a57806395d89b4114610267578063a9059cbb14610292578063ab757d61146102cf576100e8565b806318160ddd116100c657806318160ddd1461018057806323b872dd146101ab5780632f4350c2146101e8578063313ce567146101ff576100e8565b8063047fc9aa146100ed57806306fdde0314610118578063095ea7b314610143575b600080fd5b3480156100f957600080fd5b506101026103a7565b60405161010f9190610ffd565b60405180910390f35b34801561012457600080fd5b5061012d6103b0565b60405161013a91906110a8565b60405180910390f35b34801561014f57600080fd5b5061016a60048036038101906101659190611159565b61043e565b60405161017791906111b4565b60405180910390f35b34801561018c57600080fd5b50610195610530565b6040516101a29190610ffd565b60405180910390f35b3480156101b757600080fd5b506101d260048036038101906101cd91906111cf565b610536565b6040516101df91906111b4565b60405180910390f35b3480156101f457600080fd5b506101fd6106e7565b005b34801561020b57600080fd5b50610214610879565b604051610221919061123e565b60405180910390f35b34801561023657600080fd5b50610251600480360381019061024c9190611259565b61088c565b60405161025e9190610ffd565b60405180910390f35b34801561027357600080fd5b5061027c6108a4565b60405161028991906110a8565b60405180910390f35b34801561029e57600080fd5b506102b960048036038101906102b49190611159565b610932565b6040516102c691906111b4565b60405180910390f35b3480156102db57600080fd5b506102e4610a4f565b6040516102f1919061129f565b60405180910390f35b610302610af0565b005b34801561031057600080fd5b5061032b600480360381019061032691906112ba565b610b3f565b005b34801561033957600080fd5b50610354600480360381019061034f91906112e7565b610c8d565b6040516103619190610ffd565b60405180910390f35b34801561037657600080fd5b50610391600480360381019061038c9190611259565b610cb2565b60405161039e9190610ffd565b60405180910390f35b60008054905090565b600380546103bd90611356565b80601f01602080910402602001604051908101604052809291908181526020018280546103e990611356565b80156104365780601f1061040b57610100808354040283529160200191610436565b820191906000526020600020905b81548152906001019060200180831161041957829003601f168201915b505050505081565b600081600260003373ffffffffffffffffffffffffffffffffffffffff1673ffffffffffffffffffffffffffffffffffffffff16815260200190815260200160002060008573ffffffffffffffffffffffffffffffffffffffff1673ffffffffffffffffffffffffffffffffffffffff168152602001908152602001600020819055508273ffffffffffffffffffffffffffffffffffffffff163373ffffffffffffffffffffffffffffffffffffffff167f8c5be1e5ebec7d5bd14f71427d1e84f3dd0314c0f7b2291e5b200ac8c7c3b9258460405161051e9190610ffd565b60405180910390a36001905092915050565b60005481565b600081600260008673ffffffffffffffffffffffffffffffffffffffff1673ffffffffffffffffffffffffffffffffffffffff16815260200190815260200160002060003373ffffffffffffffffffffffffffffffffffffffff1673ffffffffffffffffffffffffffffffffffffffff16815260200190815260200160002060008282546105c491906113b6565b9250508190555081600160008673ffffffffffffffffffffffffffffffffffffffff1673ffffffffffffffffffffffffffffffffffffffff168152602001908152602001600020600082825461061a91906113b6565b9250508190555081600160008573ffffffffffffffffffffffffffffffffffffffff1673ffffffffffffffffffffffffffffffffffffffff168152602001908152602001600020600082825461067091906113ea565b925050819055508273ffffffffffffffffffffffffffffffffffffffff168473ffffffffffffffffffffffffffffffffffffffff167fddf252ad1be2c89b69c2b068fc378daa952ba7f163c4a11628f55a4df523b3ef846040516106d49190610ffd565b60405180910390a3600190509392505050565b6000600160003373ffffffffffffffffffffffffffffffffffffffff1673ffffffffffffffffffffffffffffffffffffffff16815260200190815260200160002054905080600260003373ffffffffffffffffffffffffffffffffffffffff1673ffffffffffffffffffffffffffffffffffffffff16815260200190815260200160002060003073ffffffffffffffffffffffffffffffffffffffff1673ffffffffffffffffffffffffffffffffffffffff1681526020019081526020016000205410156107ea576040517f08c379a00000000000000000000000000000000000000000000000000000000081526004016107e19061146a565b60405180910390fd5b80600160003373ffffffffffffffffffffffffffffffffffffffff1673ffffffffffffffffffffffffffffffffffffffff16815260200190815260200160002054101561086c576040517f08c379a0000000000000000000000000000000000000000000000000000000008152600401610863906114d6565b60405180910390fd5b6108763382610cfb565b50565b600560009054906101000a900460ff1681565b60016020528060005260406000206000915090505481565b600480546108b190611356565b80601f01602080910402602001604051908101604052809291908181526020018280546108dd90611356565b801561092a5780601f106108ff5761010080835404028352916020019161092a565b820191906000526020600020905b81548152906001019060200180831161090d57829003601f168201915b505050505081565b600081600160003373ffffffffffffffffffffffffffffffffffffffff1673ffffffffffffffffffffffffffffffffffffffff168152602001908152602001600020600082825461098391906113b6565b9250508190555081600160008573ffffffffffffffffffffffffffffffffffffffff1673ffffffffffffffffffffffffffffffffffffffff16815260200190815260200160002060008282546109d991906113ea565b925050819055508273ffffffffffffffffffffffffffffffffffffffff163373ffffffffffffffffffffffffffffffffffffffff167fddf252ad1be2c89b69c2b068fc378daa952ba7f163c4a11628f55a4df523b3ef84604051610a3d9190610ffd565b60405180910390a36001905092915050565b600080600560019054906101000a900473ffffffffffffffffffffffffffffffffffffffff1673ffffffffffffffffffffffffffffffffffffffff1663feaf968c6040518163ffffffff1660e01b815260040160a060405180830381865afa158015610abf573d6000803e3d6000fd5b505050506040513d601f19601f82011682018060405250810190610ae39190611579565b5050509150508091505090565b60003411610b33576040517f08c379a0000000000000000000000000000000000000000000000000000000008152600401610b2a90611640565b60405180910390fd5b610b3d3334610e67565b565b80600260003373ffffffffffffffffffffffffffffffffffffffff1673ffffffffffffffffffffffffffffffffffffffff16815260200190815260200160002060003073ffffffffffffffffffffffffffffffffffffffff1673ffffffffffffffffffffffffffffffffffffffff168152602001908152602001600020541015610bfe576040517f08c379a0000000000000000000000000000000000000000000000000000000008152600401610bf59061146a565b60405180910390fd5b80600160003373ffffffffffffffffffffffffffffffffffffffff1673ffffffffffffffffffffffffffffffffffffffff168152602001908152602001600020541015610c80576040517f08c379a0000000000000000000000000000000000000000000000000000000008152600401610c77906114d6565b60405180910390fd5b610c8a3382610cfb565b50565b6002602052816000526040600020602052806000526040600020600091509150505481565b6000600160008373ffffffffffffffffffffffffffffffffffffffff1673ffffffffffffffffffffffffffffffffffffffff168152602001908152602001600020549050919050565b6000610d05610a4f565b90506000610d446002610d36610d276298968086610f8c90919063ffffffff16565b86610f8c90919063ffffffff16565b610f8c90919063ffffffff16565b905082600160003373ffffffffffffffffffffffffffffffffffffffff1673ffffffffffffffffffffffffffffffffffffffff1681526020019081526020016000206000828254610d9591906113b6565b9250508190555082600080828254610dad91906113b6565b925050819055508373ffffffffffffffffffffffffffffffffffffffff166108fc829081150290604051600060405180830381858888f19350505050158015610dfa573d6000803e3d6000fd5b50600073ffffffffffffffffffffffffffffffffffffffff163373ffffffffffffffffffffffffffffffffffffffff167fddf252ad1be2c89b69c2b068fc378daa952ba7f163c4a11628f55a4df523b3ef85604051610e599190610ffd565b60405180910390a350505050565b6000610e71610a4f565b90506000610eb06002610ea285610e946298968087610f8c90919063ffffffff16565b610fa290919063ffffffff16565b610f8c90919063ffffffff16565b905080600160008673ffffffffffffffffffffffffffffffffffffffff1673ffffffffffffffffffffffffffffffffffffffff1681526020019081526020016000206000828254610f0191906113ea565b9250508190555080600080828254610f1991906113ea565b925050819055508373ffffffffffffffffffffffffffffffffffffffff16600073ffffffffffffffffffffffffffffffffffffffff167fddf252ad1be2c89b69c2b068fc378daa952ba7f163c4a11628f55a4df523b3ef83604051610f7e9190610ffd565b60405180910390a350505050565b60008183610f9a919061168f565b905092915050565b6000808303610fb45760009050610fde565b8183610fc091906116c0565b9050818382610fcf919061168f565b14610fdd57610fdc611702565b5b5b92915050565b6000819050919050565b610ff781610fe4565b82525050565b60006020820190506110126000830184610fee565b92915050565b600081519050919050565b600082825260208201905092915050565b60005b83811015611052578082015181840152602081019050611037565b60008484015250505050565b6000601f19601f8301169050919050565b600061107a82611018565b6110848185611023565b9350611094818560208601611034565b61109d8161105e565b840191505092915050565b600060208201905081810360008301526110c2818461106f565b905092915050565b600080fd5b600073ffffffffffffffffffffffffffffffffffffffff82169050919050565b60006110fa826110cf565b9050919050565b61110a816110ef565b811461111557600080fd5b50565b60008135905061112781611101565b92915050565b61113681610fe4565b811461114157600080fd5b50565b6000813590506111538161112d565b92915050565b600080604083850312156111705761116f6110ca565b5b600061117e85828601611118565b925050602061118f85828601611144565b9150509250929050565b60008115159050919050565b6111ae81611199565b82525050565b60006020820190506111c960008301846111a5565b92915050565b6000806000606084860312156111e8576111e76110ca565b5b60006111f686828701611118565b935050602061120786828701611118565b925050604061121886828701611144565b9150509250925092565b600060ff82169050919050565b61123881611222565b82525050565b6000602082019050611253600083018461122f565b92915050565b60006020828403121561126f5761126e6110ca565b5b600061127d84828501611118565b91505092915050565b6000819050919050565b61129981611286565b82525050565b60006020820190506112b46000830184611290565b92915050565b6000602082840312156112d0576112cf6110ca565b5b60006112de84828501611144565b91505092915050565b600080604083850312156112fe576112fd6110ca565b5b600061130c85828601611118565b925050602061131d85828601611118565b9150509250929050565b7f4e487b7100000000000000000000000000000000000000000000000000000000600052602260045260246000fd5b6000600282049050600182168061136e57607f821691505b60208210810361138157611380611327565b5b50919050565b7f4e487b7100000000000000000000000000000000000000000000000000000000600052601160045260246000fd5b60006113c182610fe4565b91506113cc83610fe4565b92508282039050818111156113e4576113e3611387565b5b92915050565b60006113f582610fe4565b915061140083610fe4565b925082820190508082111561141857611417611387565b5b92915050565b7f4e6f20416c6c6f77616e63650000000000000000000000000000000000000000600082015250565b6000611454600c83611023565b915061145f8261141e565b602082019050919050565b6000602082019050818103600083015261148381611447565b9050919050565b7f4e6f7420456e6f7567682042616c616e63650000000000000000000000000000600082015250565b60006114c0601283611023565b91506114cb8261148a565b602082019050919050565b600060208201905081810360008301526114ef816114b3565b9050919050565b600069ffffffffffffffffffff82169050919050565b611515816114f6565b811461152057600080fd5b50565b6000815190506115328161150c565b92915050565b61154181611286565b811461154c57600080fd5b50565b60008151905061155e81611538565b92915050565b6000815190506115738161112d565b92915050565b600080600080600060a08688031215611595576115946110ca565b5b60006115a388828901611523565b95505060206115b48882890161154f565b94505060406115c588828901611564565b93505060606115d688828901611564565b92505060806115e788828901611523565b9150509295509295909350565b7f5a65726f20457468657200000000000000000000000000000000000000000000600082015250565b600061162a600a83611023565b9150611635826115f4565b602082019050919050565b600060208201905081810360008301526116598161161d565b9050919050565b7f4e487b7100000000000000000000000000000000000000000000000000000000600052601260045260246000fd5b600061169a82610fe4565b91506116a583610fe4565b9250826116b5576116b4611660565b5b828204905092915050565b60006116cb82610fe4565b91506116d683610fe4565b92508282026116e481610fe4565b915082820484148315176116fb576116fa611387565b5b5092915050565b7f4e487b7100000000000000000000000000000000000000000000000000000000600052600160045260246000fdfea264697066735822122017befce2f8b22cdd035a7077ebc2c6e9693099590550551017727ec2cff2e67c64736f6c63430008120033",
  "linkReferences": {},
  "deployedLinkReferences": {}
}